{
  "contractName": "CharityChain",
  "abi": [
    {
      "inputs": [],
      "payable": false,
      "stateMutability": "nonpayable",
      "type": "constructor"
    },
    {
      "anonymous": false,
      "inputs": [
        {
          "indexed": false,
          "internalType": "uint256",
          "name": "id",
          "type": "uint256"
        },
        {
          "indexed": false,
          "internalType": "string",
          "name": "name",
          "type": "string"
        },
        {
          "indexed": false,
          "internalType": "uint256",
          "name": "coins_wanted",
          "type": "uint256"
        },
        {
          "indexed": false,
          "internalType": "address payable",
          "name": "addr_org",
          "type": "address"
        },
        {
          "indexed": false,
          "internalType": "bool",
          "name": "reqSatisfied",
          "type": "bool"
        }
      ],
      "name": "OrganisationCreated",
      "type": "event"
    },
    {
      "anonymous": false,
      "inputs": [
        {
          "indexed": false,
          "internalType": "uint256",
          "name": "id",
          "type": "uint256"
        },
        {
          "indexed": false,
          "internalType": "string",
          "name": "name",
          "type": "string"
        },
        {
          "indexed": false,
          "internalType": "uint256",
          "name": "coins_wanted",
          "type": "uint256"
        },
        {
          "indexed": false,
          "internalType": "address payable",
          "name": "addr_org",
          "type": "address"
        },
        {
          "indexed": false,
          "internalType": "bool",
          "name": "reqSatisfied",
          "type": "bool"
        }
      ],
      "name": "OrganisationDonated",
      "type": "event"
    },
    {
      "constant": true,
      "inputs": [],
      "name": "name",
      "outputs": [
        {
          "internalType": "string",
          "name": "",
          "type": "string"
        }
      ],
      "payable": false,
      "stateMutability": "view",
      "type": "function"
    },
    {
      "constant": true,
      "inputs": [
        {
          "internalType": "uint256",
          "name": "",
          "type": "uint256"
        }
      ],
      "name": "organisations",
      "outputs": [
        {
          "internalType": "uint256",
          "name": "id",
          "type": "uint256"
        },
        {
          "internalType": "string",
          "name": "name",
          "type": "string"
        },
        {
          "internalType": "uint256",
          "name": "coins_wanted",
          "type": "uint256"
        },
        {
          "internalType": "address payable",
          "name": "addr_org",
          "type": "address"
        },
        {
          "internalType": "bool",
          "name": "reqSatisfied",
          "type": "bool"
        }
      ],
      "payable": false,
      "stateMutability": "view",
      "type": "function"
    },
    {
      "constant": true,
      "inputs": [],
      "name": "orgsCount",
      "outputs": [
        {
          "internalType": "uint256",
          "name": "",
          "type": "uint256"
        }
      ],
      "payable": false,
      "stateMutability": "view",
      "type": "function"
    },
    {
      "constant": false,
      "inputs": [
        {
          "internalType": "string",
          "name": "_name",
          "type": "string"
        },
        {
          "internalType": "uint256",
          "name": "_coins_wanted",
          "type": "uint256"
        }
      ],
      "name": "createOrganisation",
      "outputs": [],
      "payable": false,
      "stateMutability": "nonpayable",
      "type": "function"
    },
    {
      "constant": false,
      "inputs": [
        {
          "internalType": "uint256",
          "name": "_id",
          "type": "uint256"
        }
      ],
      "name": "giveDonation",
      "outputs": [],
      "payable": true,
      "stateMutability": "payable",
      "type": "function"
    }
  ],
  "bytecode": "0x6080604052600060015534801561001557600080fd5b506040518060400160405280600d81526020017f4368617269747920436861696e0000000000000000000000000000000000000081525060009080519060200190610061929190610067565b5061010c565b828054600181600116156101000203166002900490600052602060002090601f016020900481019282601f106100a857805160ff19168380011785556100d6565b828001600101855582156100d6579182015b828111156100d55782518255916020019190600101906100ba565b5b5090506100e391906100e7565b5090565b61010991905b808211156101055760008160009055506001016100ed565b5090565b90565b610beb8061011b6000396000f3fe60806040526004361061004a5760003560e01c8063040f198f1461004f57806306fdde031461007a578063246f8c441461010a5780635edae5701461020a578063c5802e3a14610238575b600080fd5b34801561005b57600080fd5b5061006461030a565b6040518082815260200191505060405180910390f35b34801561008657600080fd5b5061008f610310565b6040518080602001828103825283818151815260200191508051906020019080838360005b838110156100cf5780820151818401526020810190506100b4565b50505050905090810190601f1680156100fc5780820380516001836020036101000a031916815260200191505b509250505060405180910390f35b34801561011657600080fd5b506101436004803603602081101561012d57600080fd5b81019080803590602001909291905050506103ae565b60405180868152602001806020018581526020018473ffffffffffffffffffffffffffffffffffffffff1673ffffffffffffffffffffffffffffffffffffffff16815260200183151515158152602001828103825286818151815260200191508051906020019080838360005b838110156101cb5780820151818401526020810190506101b0565b50505050905090810190601f1680156101f85780820380516001836020036101000a031916815260200191505b50965050505050505060405180910390f35b6102366004803603602081101561022057600080fd5b81019080803590602001909291905050506104a9565b005b34801561024457600080fd5b506103086004803603604081101561025b57600080fd5b810190808035906020019064010000000081111561027857600080fd5b82018360208201111561028a57600080fd5b803590602001918460018302840111640100000000831117156102ac57600080fd5b91908080601f016020809104026020016040519081016040528093929190818152602001838380828437600081840152601f19601f820116905080830192505050505050509192919290803590602001909291905050506108b8565b005b60015481565b60008054600181600116156101000203166002900480601f0160208091040260200160405190810160405280929190818152602001828054600181600116156101000203166002900480156103a65780601f1061037b576101008083540402835291602001916103a6565b820191906000526020600020905b81548152906001019060200180831161038957829003601f168201915b505050505081565b6002602052806000526040600020600091509050806000015490806001018054600181600116156101000203166002900480601f0160208091040260200160405190810160405280929190818152602001828054600181600116156101000203166002900480156104605780601f1061043557610100808354040283529160200191610460565b820191906000526020600020905b81548152906001019060200180831161044357829003601f168201915b5050505050908060020154908060030160009054906101000a900473ffffffffffffffffffffffffffffffffffffffff16908060030160149054906101000a900460ff16905085565b6104b1610aca565b600260008381526020019081526020016000206040518060a001604052908160008201548152602001600182018054600181600116156101000203166002900480601f0160208091040260200160405190810160405280929190818152602001828054600181600116156101000203166002900480156105725780601f1061054757610100808354040283529160200191610572565b820191906000526020600020905b81548152906001019060200180831161055557829003601f168201915b50505050508152602001600282015481526020016003820160009054906101000a900473ffffffffffffffffffffffffffffffffffffffff1673ffffffffffffffffffffffffffffffffffffffff1673ffffffffffffffffffffffffffffffffffffffff1681526020016003820160149054906101000a900460ff16151515158152505090506000816060015190506000826000015111801561061b5750600154826000015111155b61062457600080fd5b816040015134101561063557600080fd5b81608001511561064457600080fd5b3373ffffffffffffffffffffffffffffffffffffffff168173ffffffffffffffffffffffffffffffffffffffff16141561067d57600080fd5b33826060019073ffffffffffffffffffffffffffffffffffffffff16908173ffffffffffffffffffffffffffffffffffffffff168152505060018260800190151590811515815250508160026000858152602001908152602001600020600082015181600001556020820151816001019080519060200190610700929190610b11565b506040820151816002015560608201518160030160006101000a81548173ffffffffffffffffffffffffffffffffffffffff021916908373ffffffffffffffffffffffffffffffffffffffff16021790555060808201518160030160146101000a81548160ff0219169083151502179055509050508073ffffffffffffffffffffffffffffffffffffffff166108fc349081150290604051600060405180830381858888f193505050501580156107bb573d6000803e3d6000fd5b507f406c9231f0109543fe205fc6ea7259106f7abc83300bf8a0d40018c50c49d0326001548360200151846040015133600160405180868152602001806020018581526020018473ffffffffffffffffffffffffffffffffffffffff1673ffffffffffffffffffffffffffffffffffffffff16815260200183151515158152602001828103825286818151815260200191508051906020019080838360005b8381101561087557808201518184015260208101905061085a565b50505050905090810190601f1680156108a25780820380516001836020036101000a031916815260200191505b50965050505050505060405180910390a1505050565b60008251116108c657600080fd5b600081116108d357600080fd5b6001600081548092919060010191905055506040518060a0016040528060015481526020018381526020018281526020013373ffffffffffffffffffffffffffffffffffffffff16815260200160001515815250600260006001548152602001908152602001600020600082015181600001556020820151816001019080519060200190610962929190610b11565b506040820151816002015560608201518160030160006101000a81548173ffffffffffffffffffffffffffffffffffffffff021916908373ffffffffffffffffffffffffffffffffffffffff16021790555060808201518160030160146101000a81548160ff0219169083151502179055509050507f1acaab70783ea15958153507bf264f308a982bf15231132188438f4f9eac9503600154838333600060405180868152602001806020018581526020018473ffffffffffffffffffffffffffffffffffffffff1673ffffffffffffffffffffffffffffffffffffffff16815260200183151515158152602001828103825286818151815260200191508051906020019080838360005b83811015610a88578082015181840152602081019050610a6d565b50505050905090810190601f168015610ab55780820380516001836020036101000a031916815260200191505b50965050505050505060405180910390a15050565b6040518060a00160405280600081526020016060815260200160008152602001600073ffffffffffffffffffffffffffffffffffffffff1681526020016000151581525090565b828054600181600116156101000203166002900490600052602060002090601f016020900481019282601f10610b5257805160ff1916838001178555610b80565b82800160010185558215610b80579182015b82811115610b7f578251825591602001919060010190610b64565b5b509050610b8d9190610b91565b5090565b610bb391905b80821115610baf576000816000905550600101610b97565b5090565b9056fea265627a7a72315820916933370c32e98bc653e6d25b5d13262925ae899ecda5dbf7eb64ba44fa0f1764736f6c63430005100032",
  "source": "pragma solidity ^0.5.0;\r\n\r\ncontract CharityChain {\r\n  string public name;\r\n  uint public orgsCount = 0;\r\n\r\n  mapping(uint => Organisation) public organisations;\r\n\r\n  struct Organisation {\r\n    uint id;\r\n    string name;\r\n    uint coins_wanted;\r\n    address payable addr_org;\r\n    bool reqSatisfied;\r\n  }\r\n\r\n  event OrganisationCreated (\r\n    uint id,\r\n    string name,\r\n    uint coins_wanted,\r\n    address payable addr_org,\r\n    bool reqSatisfied\r\n  );\r\n\r\n  event OrganisationDonated (\r\n    uint id,\r\n    string name,\r\n    uint coins_wanted,\r\n    address payable addr_org,\r\n    bool reqSatisfied\r\n  );\r\n\r\n  constructor() public {\r\n    name = \"Charity Chain\";\r\n  }\r\n\r\n  function createOrganisation(string memory _name, uint _coins_wanted) public {\r\n    // Required Valid Name\r\n    require(bytes(_name).length > 0);\r\n    // Required Valid Price\r\n    require(_coins_wanted > 0);\r\n    //Increment product count\r\n    orgsCount++;\r\n    //create a product\r\n    organisations[orgsCount] = Organisation(orgsCount, _name, _coins_wanted, msg.sender, false);\r\n    //Trigger the enter\r\n    emit OrganisationCreated(orgsCount, _name, _coins_wanted, msg.sender, false);\r\n  }\r\n\r\n  function giveDonation(uint _id) public payable{\r\n      Organisation memory _org = organisations[_id];\r\n      address payable _addr_org = _org.addr_org;\r\n      require(_org.id > 0 && _org.id <= orgsCount);\r\n      require(msg.value >= _org.coins_wanted);\r\n      require(!_org.reqSatisfied);\r\n      require(_addr_org != msg.sender);\r\n      _org.addr_org = msg.sender;\r\n      // Mark as Purchase\r\n      _org.reqSatisfied = true;\r\n      // Update the product\r\n      organisations[_id] = _org;\r\n      // Pay the seller\r\n      address(_addr_org).transfer(msg.value);\r\n      // Trigger the event\r\n      emit OrganisationDonated(orgsCount, _org.name, _org.coins_wanted, msg.sender, true);\r\n  }\r\n}\r\n",
  "sourcePath": "D:/College_Projects/SIProject/contracts/CharityChain.sol",
  "compiler": {
    "name": "solc",
    "version": "0.5.16+commit.9c3226ce.Emscripten.clang"
  },
  "schemaVersion": "3.4.1",
  "updatedAt": "2021-07-23T05:27:35.288Z",
  "networkType": "ethereum",
  "devdoc": {
    "methods": {}
  },
  "userdoc": {
    "methods": {}
  }
}